:020000040800F2
:100000006050002015020008E1240008CB0500081C
:10001000DD240008E70800087B3500080000000028
:100020000000000000000000000000000B3200088B
:10003000551C00080000000053050008B1340008FA
:100040002F0200082F0200082F0200082F020008CC
:100050002F0200082F0200082F0200082F020008BC
:100060002F0200082F0200082F0200082F020008AC
:10007000A11900082F0200082F0200082F02000813
:100080002F0200082F0200082F0200082F0200088C
:100090002F0200082F0200082F0200082F0200087C
:1000A0002F0200082F0200082F0200082F0200086C
:1000B0002F0200082F0200082F0200082F0200085C
:1000C0002F0200082F0200082F0200082F0200084C
:1000D0002F0200082F0200082F0200082F0200083C
:1000E0002F0200082F0200082F0200082F0200082C
:1000F0002F0200082F0200082F0200082F0200081C
:100100002F0200082F0200082F0200082F0200080B
:100110002F0200082F0200082F0200082F020008FB
:100120002F0200082F0200082F0200082F020008EB
:1001300000F002F800F05EF80AA090E8000C82449B
:100140008344AAF10107DA4501D100F053F8AFF278
:10015000090EBAE80F0013F0010F18BFFB1A43F0A5
:1001600001031847786A0000986A000010F8013B04
:100170000A4413F0030408BF10F8014B1D1108BF17
:1001800010F8015B641E05D010F8016B641E01F8C5
:10019000016BF9D1002D15D010F8014B03F00C03C1
:1001A0000C2BA1EB04040ABF10F8013BA4EB831451
:1001B000A4EB032405F1010314F8016B5B1E01F8A5
:1001C000016BF9D5914238BF10F8013BD1D370478C
:1001D0000023002400250026103A28BF78C1FBD850
:1001E000520728BF30C148BF0B6070471FB51FBD05
:1001F00010B510BD00F04AFA1146FFF7F7FF00F006
:1002000078FA00F068FA03B4FFF7F2FF03BC00F0DD
:1002100069FA00000948804709480047FEE7FEE701
:10022000FEE7FEE7FEE7FEE7FEE7FEE7FEE7FEE7A6
:1002300004480549054A064B70470000C9340008C8
:1002400031010008604A002060500020604C00200E
:10025000604C00202DE9F04F4FF0000C4FF00003F0
:1002600001EB9C6EBEF902503EF9404BBEF9029084
:100270003EF9408BBEF902703EF9406BBEF902B008
:100280003EF940ABD044D944A8EB4A0AA9EB4B0B4A
:100290004FEAA4044FEAA50504EBA60405EBA70565
:1002A000A4EB6606A5EB670704EBA80405EBA9051C
:1002B000A4EB6808A5EB690906EBAB06A7EBAA0758
:1002C000A6EB6B0B07EB6A0A458020F8044B4780CE
:1002D00020F8046BA0F8029020F8048BA0F802A08C
:1002E00020F804BB03F1010393FAA3FC102BB7D150
:1002F000A0EB82014FF0100312090FF2361000F14B
:10030000000006B403EB430C6144A2F5803202EB1B
:100310008332B1F90250B1F90040A1EB0301B0F909
:1003200002B0B0F900A000F10400A5EB040E0EFB32
:100330000BFC0AEB4B0E05FB0ACB04FB0ECAB1F912
:100340000250B1F90040A1EB0301B0F90290B0F9FD
:10035000008000F10400A5EB040E0EFB09FC08EB85
:10036000490E05FB08C904FB0EC8B1F90250B1F9EA
:100370000040A1EB0301B0F90270B0F9006000F198
:100380000400A5EB040E0EFB07FC06EB470E05FB75
:1003900006C704FB0EC6B1F90250B1F9004001F1E5
:1003A0000001D044D944A8EB4A0AA9EB4B0B4FEA11
:1003B000A4044FEAA50504EB264405EB2745A4EB6E
:1003C000E636A5EBE73704EB284405EB2945A4EB1B
:1003D000E838A5EBE93906EB2B46A7EB2A47A6EB55
:1003E000EB3B07EBEA3A4D800C8019444F800E80BE
:1003F0001944A1F80290A1F800801944A1F802A0C4
:1004000021F804BBB2F5803283DA03EB430C61447C
:10041000A2F101025FEA024E18BFA0EB0C007FF4CC
:1004200076AF06BC4FEA830392087FF46AAFBDE85B
:10043000F08F0040000000400000004000005DDD43
:10044000213BA3227E180000412D7EA5412D0000F6
:10045000412D00C000405DDD82E75DDD213B7EA5D2
:10046000412D004000000040000000400000AA2A8A
:1004700094126B39460649327C0CA8118E234932FE
:100480007C0CA3227E1821F77931AA2A9412A81194
:100490008E235DDD213BA3227E180000412D95C6F1
:1004A000B13F461A2B1E58EE3735BEB4C53EA811D3
:1004B0008E235DDD213B63A97138DF089A28B7CD13
:1004C000C53E7EA5412D0000412D00C0004063A91E
:1004D0002B1E21F77931BEB4C53EBEB47C0C58EE5C
:1004E000373561AC213B95C6BAF9BAE571383BA7FF
:1004F00037355DDD82E75DDD213B7EA5412D21F7AE
:1005000066D756D53F3D3BA78E23A811C9CAB7CDA4
:10051000C53E61AC7E18AA2AC1C295C6B13FBEB421
:100520007C0C0000EFF3108072B6704780F31088E7
:100530007047334A1368012B04D04FF00103136056
:10054000304A1060304A116030484FF080510160ED
:100550007047EFF3108272B62948016891B14FF0ED
:10056000000101602748016829B1EFF3098121E901
:10057000F00F00680160244909680968B1E8F00FCC
:1005800081F3098882F310884EF0040E70471E49EB
:1005900008601C494FF00000086019494FF0010045
:1005A00008601B484FF47F01D0F8002041EA0201A7
:1005B000016016484FF080510160164800680068DD
:1005C00080F3088861B662B670471EF0040F0CBF56
:1005D000EFF30880EFF3098020E9F00F40F804ED15
:1005E0001EF0040F0CBF80F3088880F3098800B563
:1005F00004F058F95DF804EB4EF0040E704700006B
:1006000000110020F8100020FC10002004ED00E094
:1006100020ED00E008ED00E010B5203AC0F00B80BE
:10062000B1E81850203AA0E81850B1E81850A0E8F6
:100630001850BFF4F5AF5FEA027C24BFB1E8185050
:10064000A0E8185044BF18C918C0BDE810405FEAC0
:10065000827C24BF51F8043B40F8043B08BF70473C
:10066000D20728BF31F8023B48BF11F8012B28BF41
:1006700020F8023B48BF00F8012B704770477047D5
:100680007047000000487047004A00207546FFF799
:10069000F9FFAE4605006946534620F0070085463F
:1006A00018B020B5FFF7C4FDBDE820404FF00006AC
:1006B0004FF000074FF000084FF0000B21F007014A
:1006C000AC46ACE8C009ACE8C009ACE8C009ACE88D
:1006D000C0098D4670470446AFF300802046FFF7FF
:1006E00092FD000001491820ABBEFEE72600020083
:1006F000704710B505F01AFB002010BD70B541F62B
:10070000FF7000F02AF80546662D01D1002070BD6B
:10071000662141F6FF7000F05BF841F6FF7000F0D3
:100720001CF80446662C01D10020F0E70120EEE71A
:1007300010B501F037FD10BD70B506460C461546E4
:1007400008E03046721C96B200F007F804F8010B7E
:10075000681E85B2002DF4D170BD70B50446002628
:1007600001F0D6FDA02001F099FD01F021FE20123C
:1007700001F094FD01F01CFE2546E11704EB116128
:100780000912A4EB0121C8B201F088FD01F010FEAE
:1007900001F0BEFDA12001F081FD01F009FE002065
:1007A00001F044FD064601F0D9FD304670BD70B53C
:1007B00006460C46154606E02146304600F02EF867
:1007C000301D86B2241D281F80B20500F4D170BDF3
:1007D00070B504460E4601F09BFDA02001F05EFDC1
:1007E00001F0E6FD201201F059FD01F0E1FD254682
:1007F000E11704EB11610912A4EB0121C8B201F069
:100800004DFD01F0D5FD304601F048FD01F0D0FD71
:1008100001F0A4FD142004F0CFFE70BD2DE9F041DD
:1008200004460F4601F074FDA02001F037FD01F0F1
:10083000BFFD201201F032FD01F0BAFD2646E1179E
:1008400004EB11610912A4EB0121C8B201F026FDED
:1008500001F0AEFD002506E0785D01F01FFD01F01E
:10086000A7FD681CC5B2042DF6DB01F077FD14204E
:1008700004F0A2FEBDE8F08110B502460B46002050
:10088000002104E00002545C20444C1CE1B2994277
:10089000F8DB10BD10B502460B4600205C1CE1B22F
:1008A00006E00002541814F8024C20444C1EE1B239
:1008B0000129F6DC10BD10B5012001F077FF002002
:1008C00001F074FF10BD60F400016FF4000291426A
:1008D00008D000F40001B1F5000F03D1C143491C59
:1008E000C1F31600704700BFFEE7000010B54FF4DB
:1008F00080510C4801F0D6FBC32002F01BFC002005
:1009000002F018FC002002F015FC002002F012FC9E
:100910004FF48051034801F0C7FB0A2004F04CFE5D
:1009200010BD0000000C01402DE9F04F85B083465A
:100930008A46002004900AF11001C8B202F090F932
:10094000009005F02FFC804600222A4B05F0D2FAD9
:1009500006460022284B05F0CDFA044605F098FA29
:1009600002905846029905F0CDFD04464FF07E51A5
:1009700006F01AF801900021019805F0D9FF05D280
:100980001E49019805F008FF019009E01B490198F4
:1009900005F002FF04464FF08F4105F045FD019040
:1009A000032203A9019801F02AF9019805F088FEB5
:1009B00004460AF11A01C8B2214602F0E1FD01988D
:1009C00005F07EFE0E4941F82A002020049902F02D
:1009D000D7FD019805F074FE04462146202002F060
:1009E000CFFD019805F06CFE05493C39886405B0DF
:1009F000BDE8F08F0000C04000001440004CFF46EE
:100A00002C1600202DE9F84F06460C46611CC8B292
:100A100002F026F9824605F073FE07464FF0964134
:100A2000384605F085FF1AD24FF09741384605F059
:100A3000BBFF07463E493F48006805F0ADFE4FF05A
:100A40009641009005F0A8FE82463B49384605F0E5
:100A5000A3FE8346514605F055FD074613E0344991
:100A60003448006805F098FE83464FF0964105F043
:100A700093FE82463049384605F08EFE514600907E
:100A800005F040FD07463946304605F082FF8246B4
:100A9000314605F037FD804641464FF07E5005F067
:100AA000C3FC82464146002005F07EFF8346514646
:100AB00005F028FD81460021484605F039FF06D89B
:100AC0004FF09641484605F067FE05460AE04FF0B4
:100AD0009641484605F060FE82464FF0974105F08A
:100AE000A3FC0546284605F0EBFD4FEA102A211D20
:100AF000C8B2514602F044FD284605F0E1FD4FEA38
:100B0000102AE11DC8B2514602F03AFD284605F010
:100B1000D7FD010A094840F82410284605F0D0FD09
:100B2000010A06480C3040F82410BDE8F88F000098
:100B30000000C845DC1000207A1EC150FC150020C2
:100B40002DE9FF5F04460E4604F11801C8B202F019
:100B500087F8074605F0D4FD81464FF0934148469B
:100B600005F0E6FE14D24FF09741484605F01CFF11
:100B700081464FF09341484605F0C4FC8046454904
:100B800005F00AFE0746444905F04EFC814609E09F
:100B90004FF09341484605F0B5FC07463D4905F046
:100BA000FBFD8146C4EB04113C2202EBC10005F0C1
:100BB000A7FDC4EB04110390C80005F0A1FD494650
:100BC000029005F0E6FE8046344905F0EDFE07464A
:100BD000039905F097FC82465146002005F0E4FE9B
:100BE000019005F0F5FB07462D4A2E4B05F082F9E2
:100BF000CDE9020105F04CF983460021584605F085
:100C000097FE06D84FF08E41584605F0C5FD0546C3
:100C10000AE04FF08E41584605F0BEFD07464FF002
:100C20008F4105F001FC0546022E0FD1284605F044
:100C30002BFD074604F10D01C8B2394602F0A0FCB5
:100C4000284605F03DFD184941F82400284605F0E6
:100C500037FD074604F11001C8B2394602F090FC96
:100C6000284605F02DFD074604F16101C8B239465A
:100C700002F086FC284605F023FD0B497C3141F843
:100C80002400284605F01CFD0749883141F824005E
:100C9000BDE8FF9F000034430000B44300007042F1
:100CA00083C0CAA145B6FB3FF01500202DE9F04FE7
:100CB00087B005460C46611DC8B201F0D1FF07465A
:100CC00005F01EFD06464FF09641304605F030FE19
:100CD0001AD24FF09741304605F066FE064642496B
:100CE0004248006805F058FD83464FF0964105F0F4
:100CF00053FD07463E49304605F04EFD80463946D5
:100D000005F000FC064613E037493848006805F056
:100D100043FD83464FF0964105F03EFD07463449BA
:100D2000304605F039FD8046394605F0EBFB0646B6
:100D30003146284605F02DFE0746294605F0E2FB20
:100D4000814689F0004028490390284605F024FD9B
:100D5000009026480168009805F01EFD4FF09E4166
:100D6000019005F019FD0290039905F015FD8346E9
:100D700005F02EFB07464FF080421E4B05F0BAF8F7
:100D8000CDE9040105F084F88246032206A9504605
:100D900000F035FF022106A8FFF76EFD074604F1BB
:100DA0002101C8B2394602F0EBFB032106A8FFF788
:100DB00063FDC7B204F16701C8B2394602F0E0FB37
:100DC000022106A8FFF758FD0B4941F82400032132
:100DD00006A8FFF751FDC1B207480C3040F82410B7
:100DE00007B0BDE8F08F00000000C845DC1000200F
:100DF0007A1EC150CF2318425416002010B5044665
:100E000004F12701C8B2072102F0BAFB072102480A
:100E100040F8241010BD0000901600202DE9F84F76
:100E200081460C4604F10D01C8B201F019FF009093
:100E300005F0B8F9074600221D4B05F05BF80546A2
:100E400005F026F882465146484605F05BFB05460C
:100E50004FF07E5105F0A8FD83460021584605F06D
:100E600067FD06D24FF09641584605F095FC834643
:100E70000AE04FF09641584605F08EFC05464FF0CB
:100E8000974105F0D1FA8346584605F019FC050A4A
:100E900004F11701C8B2294602F072FB584605F06A
:100EA0000FFC010A034840F82410BDE8F88F000049
:100EB0000000C0402016002070B51C2001F0D0FEBC
:100EC000054605F01DFC04464FF08C41204605F018
:100ED00019FB0149C86170BD9C11002070B54FF429
:100EE00080516E4801F0DEF8C92002F023F900209D
:100EF00002F020F9002002F01DF95A2002F01AF940
:100F00004FF48051654801F0CFF8052002F0D2FE81
:100F10004FF48051614801F0C5F8C52002F00AF98C
:100F2000002002F007F9002002F004F9002002F08E
:100F300001F94FF48051594801F0B6F8322002F01F
:100F4000B9FE4FF48051554801F0ACF8C52002F0CD
:100F5000F1F8002002F0EEF8002002F0EBF8022099
:100F600002F0E8F84FF480514C4801F09DF832202F
:100F700004F022FB04E04FF48051484801F092F85D
:100F80007E2001F095FEB0F5806FF4D1C12002F013
:100F9000D1F8002002F0CEF8002002F0CBF80020BB
:100FA00002F0C8F84FF480513C4801F07DF800256C
:100FB0001DE0002417E07F2001F07AFE384901EBA4
:100FC000042141F82500364800EB042030F82500C4
:100FD0000004344901EB042141F82500052002F00A
:100FE00069FE601CC4B2072CE5DB681CC5B2402D4D
:100FF000DFDB00240AE02B4A02EB04212A4A02EB41
:1010000004204022FFF726F9601CC4B2062CF2DB54
:1010100001F054F800243EE0032C1BDA022516E010
:101020002946204602F08AFF064604EB84021F4848
:1010300000EB02104168304605F0AEFB04EB840281
:101040001A4901EB021141F82500681CC5B2142DA4
:10105000E6DB1EE002251AE02946204602F06EFF7C
:101060000646E01E00EB80021048F03000EB021054
:101070004168304605F090FBE11E01EB81020B490F
:10108000F03101EB021141F82500681CC5B2142DA6
:10109000E2DB601CC4B2062CBEDB70BD000C01405C
:1010A0008C1E00208C2500208C2C00204C1200204F
:1010B0002DE9F041002467E004F10D01C8B201F010
:1010C000CFFD064605F01CFB05464FF08C4105F0B0
:1010D00019FA364941F8240004F14801C8B201F078
:1010E000BFFD064605F00CFB05464FF08C4105F0B0
:1010F00009FA04EB84022D49903101EB021148609A
:1011000004EB8403294A903202EB031204EB8403BC
:101110005168264A903202EB0312506805F03CFBFE
:101120000746224A52F8241052F8240005F034FBF6
:101130008046394605F038FC064602F0DBF80546E5
:1011400004EB84021948903000EB021041682846F5
:1011500005F0D8F91549783141F8240004EB8403EF
:1011600001F1180202EB03125168104A783252F86A
:10117000240005F011FB04EB84020C49903101EBD3
:1011800002110860601CC4B2032C95DB2B2001F017
:1011900067FD064605F0B4FA05464FF08B4105F0B1
:1011A000B1F902492039C862BDE8F081BC110020C4
:1011B0002DE9F041002433E004F11801C8B201F038
:1011C0004FFD064605F09CFA05464FF09341284630
:1011D00005F0AEFB16D24FF09741284605F0E4FB30
:1011E00005464FF09341284605F08CF907460E4915
:1011F00005F0D2FA06460D4905F016F90C4941F8FA
:1012000024000BE04FF09341284605F07BF9064699
:10121000054905F0C1FA064941F82400601CC4B232
:10122000032CC9DBBDE8F081000034430000B44367
:10123000281200202DE9F041002419E004F12601D4
:10124000C8B201F00DFD0746FFF73DFB064605F06D
:1012500057FA05464FF09341284605F053F90646E4
:10126000054905F099FA054941F82400601CC4B20B
:10127000032CE3DBBDE8F081000034431C120020A6
:1012800070B5002427E004F11401C8B201F0E8FCB5
:10129000064605F035FA05464FF09641284605F01A
:1012A00047FB0ED24FF09741284605F07DFB0546DF
:1012B0004FF09641284605F025F9084941F82400E9
:1012C00007E04FF09641284605F01CF9034941F824
:1012D0002400601CC4B2042CD5DB70BD0C120020AD
:1012E0002DE9F0474A484B490860002442E0611C60
:1012F000C8B201F0B5FC064605F002FA05464FF00B
:101300009641284605F014FB1CD24FF09741284621
:1013100005F04AFB054640493E48006805F03CFAA6
:1013200080464FF0964105F037FA06463B4928467D
:1013300005F032FA0746314605F0E4F8384941F83D
:10134000240015E034493348006805F025FA80464A
:101350004FF0964105F020FA06463049284605F040
:101360001BFA0746314605F0CDF82D4941F8240017
:10137000601CC4B2032CBADB042001F071FC0646E9
:1013800005F0BEF905464FF09641284605F0D0FA23
:1013900021D24FF09741284605F006FB05461E492D
:1013A0001C48006805F0F8F981464FF0964105F0B9
:1013B000F3F907461949284605F0EEF98046394603
:1013C00005F0A0F806464FF0804105F0E5F9144914
:1013D00041F824001AE010490E48006805F0DCF9D5
:1013E00081464FF0964105F0D7F907460B4928464C
:1013F00005F0D2F98046394605F084F806464FF0EC
:10140000804105F0C9F9064941F82400BDE8F0879C
:101410000000D842DC1000200000C8457A1EC150F0
:10142000DC1100202DE9F047002442E0611DC8B224
:1014300001F016FC064605F063F905464FF09641AB
:10144000284605F075FA1CD24FF09741284605F062
:10145000ABFA05463E493F48006805F09DF98046D5
:101460004FF0964105F098F906463B49284605F0AD
:1014700093F90746314605F045F8384941F824000C
:1014800015E033493348006805F086F980464FF08F
:10149000964105F081F906462F49284605F07CF96A
:1014A0000746314605F02EF82C4941F82400601C0F
:1014B000C4B2032CBADB082001F0D2FB064605F0CB
:1014C0001FF905464FF09641284605F031FA21D222
:1014D0004FF09741284605F067FA05461C491D481C
:1014E000006805F059F981464FF0964105F054F92E
:1014F00007461949284605F04FF98046394605F058
:1015000001F806464FF0804105F046F9134941F8CD
:1015100024001AE00E490F48006805F03DF98146A5
:101520004FF0964105F038F907460B49284605F07B
:1015300033F98046394604F0E5FF06464FF0804116
:1015400005F02AF9054941F82400BDE8F0870000BC
:101550000000C845DC1000207A1EC150EC110020AC
:101560002DE9F047002443E004F10901C8B201F07D
:1015700077FB064605F0C4F805464FF0964128462D
:1015800005F0D6F91CD24FF09741284605F00CFA29
:1015900005463E493E48006805F0FEF880464FF09B
:1015A000964105F0F9F806463A49284605F0F4F860
:1015B0000746314604F0A6FF374941F8240015E0FC
:1015C00032493348006805F0E7F880464FF096410D
:1015D00005F0E2F806462F49284605F0DDF80746F3
:1015E000314604F08FFF2C4941F82400601CC4B23E
:1015F000032CB9DB0C2001F033FB064605F080F824
:1016000005464FF09641284605F092F921D24FF059
:101610009741284605F0C8F905461C491C48006852
:1016200005F0BAF881464FF0964105F0B5F8074647
:101630001849284605F0B0F88046394604F062FFA4
:1016400006464FF0804105F0A7F8134941F8240001
:101650001AE00E490E48006805F09EF881464FF0EA
:10166000964105F099F807460A49284605F094F88E
:101670008046394604F046FF06464FF0804105F0AB
:101680008BF8054941F82400BDE8F0870000C84503
:10169000DC1000207A1EC150FC1100202DE9F04121
:1016A000002469E004F11001C8B201F0D9FA07463C
:1016B00005F026F806464FF08C4104F023FF05465E
:1016C000384904F01FFF384941F8240004F14B0168
:1016D000C8B201F0C5FA074605F012F806464FF009
:1016E0008C4104F00FFF05462E4904F00BFF04EB7C
:1016F00084022E4901EB0211486004EB84032B4A5B
:1017000002EB031204EB84035168284A02EB031234
:10171000506805F041F80746234A52F8241052F861
:10172000240005F039F88046394605F03DF90646B3
:1017300001F0E0FD054604EB84021C4800EB0210BA
:101740004168284604F0DEFE1749743141F8240050
:1017500004EB8403154A02EB03125168124A7432F7
:1017600052F8240005F018F804EB84020F4901EB4D
:1017700002110860601CC4B2032C93DB132001F03B
:101780006FFA074604F0BCFF06464FF08B4104F0A9
:10179000B9FE0546034904F0B5FE03493039C86374
:1017A000BDE8F0810000A040CC1100203C130020D7
:1017B00010B56548C168042001F0E2FE6248016985
:1017C000052001F0DDFE60484169052001F0D8FEEA
:1017D0005D488169072001F0D3FE5B48C16908209C
:1017E00001F0CEFE5848016A092001F0C9FE5648B2
:1017F000416A0A2001F0C4FE5348816A0B2001F0BF
:10180000BFFE5148C16A0C2001F0BAFE4E48016883
:10181000102001F0B5FE4C484168112001F0B0FEE7
:1018200049488168122001F0ABFE4748016B172040
:1018300001F0A6FE4448416B182001F0A1FE424889
:10184000816B192001F09CFE3F48C16B1A2001F00A
:1018500097FE3D48016C1B2001F092FE3A48416C16
:101860001C2001F08DFE3848C16C132001F088FE69
:101870003548016D142001F083FE3348416D152079
:1018800001F07EFE3048416E212001F079FE2E48A5
:10189000816E222001F074FE2B48C16E232001F0DE
:1018A0006FFE2948816D642001F06AFE2648C16DF3
:1018B000652001F065FE2448016E662001F060FE9F
:1018C0002148016F672001F05BFE1F48416F6820CF
:1018D00001F056FE1C48816F692001F051FE1A4844
:1018E000816C202001F04CFE1748D0F89410242081
:1018F00001F046FE1448D0F89810252001F040FE73
:101900001148D0F89C10262001F03AFE0E48D0F87D
:10191000A010272001F034FE0B48D0F8A410282096
:1019200001F02EFE0848D0F8A810292001F028FE6A
:101930000548D0F8AC106B2001F022FE0821702081
:1019400001F01EFE10BD0000F015002010B510487B
:10195000006AC4281BD20E48006A0E4909688842F2
:1019600004D00B48006A0B49086010E00A48007870
:10197000042807DD0948006803F0ACFB0020064995
:10198000087004E004480078401C0349087010BD4A
:1019900000000240DC000020D80000200C000020E5
:1019A00010B503F0A5F8202000F0EAF801281ED1B8
:1019B0000021104800F032F8C4200E491C3908629A
:1019C000C4220D490D4800F045FD012202210B48BB
:1019D0000C3801F0E5FB0121064800F01FF820203B
:1019E00000F00EF800220221024800F0DFF803F0B8
:1019F0008FF810BD1C000240140000200C30014084
:101A000000F0805111B10349086001E002494860CB
:101A100070470000040402400000024021B1026847
:101A200042F00102026004E002684FF6FE731A40C1
:101A30000260704701684FF6FE721140016000219C
:101A4000016041608160C1604B49884208D14A49C8
:101A50000839496841F00F01474A083A51608AE065
:101A600045491431884208D143490839496841F051
:101A7000F001414A083A51607DE03F4928318842EF
:101A800008D13D490839496841F470613A4A083A39
:101A9000516070E038493C31884208D136490839F4
:101AA000496841F47041344A083A516063E0324970
:101AB0005031884208D130490839496841F47021D1
:101AC0002D4A083A516056E02B496431884208D1CA
:101AD00029490839496841F47001274A083A516098
:101AE00049E025497831884208D1234908394968B5
:101AF00041F07061204A083A51603CE01F49884239
:101B000006D1011F096841F00F01021F116032E088
:101B10001A491431884208D11849091F096841F04F
:101B2000F001164A121F116025E01449283188423D
:101B300008D11249091F096841F470610F4A121F48
:101B4000116018E00D493C31884208D10B49091F4A
:101B5000096841F47041094A121F11600BE00749FE
:101B60005031884207D10549091F096841F47021A5
:101B7000024A121F11607047080002400804024028
:101B800001460020002201F0805313B1054B1A6872
:101B900001E0054B1A6802EA01030BB1012000E0E5
:101BA0000020704700040240000002401AB10368A0
:101BB0000B43036002E003688B430360704710B57A
:101BC0000022026847F6F0739A430C6A8B6823433D
:101BD0000C6923434C6923438C692343CC69234319
:101BE0004C6A23438C6A23431A430260CB684360E8
:101BF0000B6883604B68C36010BD416070472DE97E
:101C0000F04107460E461546384604F059FD044695
:101C100064B1032D01D1C4F31604022D01D1C4F324
:101C20000E04012D0FD104F07F040CE05CB9032DEC
:101C300001D144F40004022D01D144F40044012DEB
:101C400001D144F08004200CB070200A7070347010
:101C5000BDE8F0817047000010B5F32024494870BA
:101C6000012088700320C8700E20087148719020F0
:101C700088710020C87102F031F81E4800781C49B4
:101C800008721C4841781A4841721A4881781848ED
:101C900081721848C1781648C172164801791448F3
:101CA00001731448417912484173124881791048F0
:101CB00081731048C1790E48C1730E4881680C4881
:101CC00001610C48C1680A4841618022094910310C
:101CD0001830FEF7A1FC96210548801C00F02EFA72
:101CE0000446034981F89840200A81F8990010BD04
:101CF00024180020CC36002010B500200F490870B1
:101D0000B0220F4940F20440FEF751FD4FF48070BD
:101D10000C4908600021012001F032FC4BF67F5194
:101D2000012001F02DFC0021032001F029FC4FF6D9
:101D3000A251032001F024FC10BD0000000000208F
:101D4000F0150020E01000202DE9F043B1B04FF075
:101D50000008002403E08448075D601C84B2C42CA2
:101D600003DA8148005DFE28F5D1C42C11D000278C
:101D70000DE0C42C00DD00247B48005D0DF8070059
:101D8000002079490855601C84B2781C87B2C42FA2
:101D9000EFDB00240DEB04000421FEF76DFDB0F134
:101DA000FE3F7DD104F108001DF8001004F1090088
:101DB0001DF8000001EB00200C30204485B20DEB33
:101DC00005000421FEF758FDB0F1FC3F69D126461D
:101DD00006E01DF8060040441FFA80F8701C86B229
:101DE000A81EB042F5DC1DF80010681E1DF80000AA
:101DF00001EB0020404574D14FF0000804F11201BE
:101E00000DEB01000421FEF745FD814600F0DCFEEC
:101E1000601D1DF8000003282AD1A11D0DEB010053
:101E20000221FEF737FDB0F5007F1DD006DCB0F5CE
:101E3000807F0CD0A0F20110C8B90DE0B0F5A06F02
:101E40000FD0A0F60E6090B900F088FF0FE04FF4BD
:101E5000807000F09BFF0AE040F2011000F096FF56
:101E600005E002F073FA02E000F0C6FF00BF78E080
:101E7000601D1DF8000010286BD1A11D0DEB0100A5
:101E80000221FEF707FDB0F5407F48D104F11A01A9
:101E90000DEB01000421FEF7FDFC012809D001E053
:101EA0005EE05CE0022810D003281BD0042831D16A
:101EB00024E001202D49086000202D490860012000
:101EC0002C49087003F05AFF28E0022027490860D7
:101ED00000202749086001202649087003F04EFFC2
:101EE0001CE039E0032021490860002020490860F7
:101EF00001202049087003F041FF0FE004201B4936
:101F0000086000201A49086001201A49087003F08F
:101F100035FF03E000201749087000BF21E0A11D34
:101F20000DEB01000221FEF7B5FCB0F5007F18D1E2
:101F3000204603F099FFB0220F490020FEF737FC3E
:101F400003F078FF00200DF8040004F1D00084B203
:101F500007E031B0BDE8F0834FF00008F9E7F8E79B
:101F6000F7E700BFF5E70000A0160020E000002022
:101F7000E010002000000020F01500202DE9F041C5
:101F8000024600250026002000230024002791F8A7
:101F900003C00CF00F0591F803C00CF0100CBCF15D
:101FA000000F03D091F802C04CEA050591F800C07B
:101FB000BCF1000F31D0146800202BE04FF0010C71
:101FC0000CFA00F3B1F800C00CEA03069E4220D1DF
:101FD00083004FF00F0C0CFA03F7BC4305FA03FC27
:101FE0004CEA040491F803C0BCF1280F06D14FF06D
:101FF000010C0CFA00FCC2F814C00AE091F803C00E
:10200000BCF1480F05D14FF0010C0CFA00FCC2F8EE
:1020100010C0401C0828D1D31460B1F800C0BCF136
:10202000FF0F34DD546800202EE000F1080C4FF063
:10203000010808FA0CF3B1F800C00CEA03069E424E
:1020400021D183004FF00F0C0CFA03F7BC4305FAC3
:1020500003FC4CEA040491F803C0BCF1280F05D13D
:1020600000F1080C08FA0CF8C2F8148091F803C0CB
:10207000BCF1480F07D100F1080C4FF0010808FA35
:102080000CF8C2F81080401C0828CED35460BDE87C
:10209000F0810246002093680B400BB1012000E064
:1020A00000207047416170470161704710B5002002
:1020B00000F0D6FD0446204610BD00002DE9FC5F6F
:1020C000002532E000242CE01A4800EB052030F80F
:1020D000240007B2174800EB052050F824004FEA0F
:1020E0002048384604F00CFB8246404604F008FBCA
:1020F00083465946584604F04FFB514601905046DE
:1021000004F04AFB0090019904F08EF9814601F039
:10211000F1F80646084800EBC51040F82460601C42
:1021200084B2202CD0DB681C85B2062DCADBBDE84A
:10213000FC9F00008C2C00208C32002010B5024641
:102140000B460020002102E0545C2044491C9942C7
:10215000FAD310BD10B500200F4908600F48006881
:1021600020F470400D4908600846006840F4405073
:10217000086000200A49C1F8AC01022001F09AFD74
:10218000012005490860022001F094FD0020044967
:10219000C1F8A80110BD0000A8812142040C014033
:1021A0000080214208B50121082000F0EFFA4FF429
:1021B0004060ADF8000010208DF8030003208DF87A
:1021C000020069460448FFF7D9FE4FF44061024817
:1021D000FFF76AFF08BD0000000C014010B50020A9
:1021E0000F4908600F48006820F470400D490860EE
:1021F0000846006840F44050086001200A49C1F8D0
:10220000AC01022001F056FD0120054908600220C2
:1022100001F050FD00200449C1F8A80110BD0000E4
:10222000A8812142040C01400080214270B505467E
:1022300000241748006820F47040154908600846DB
:10224000006840F400400860002616E000201149B4
:102250000860022001F02EFD01200F49C1F8A801FD
:102260006006040E0B487C38006808B1601CC4B2DC
:10227000012001F01FFD701CC6B2082EE6DB15B967
:10228000FFF7ACFF01E0FFF765FF204670BD0000DF
:10229000040C0140A88121420080214270B504460F
:1022A0001848006820F47040164908600846006825
:1022B00040F44050086000201349086000251EE0EB
:1022C000E00920B101201049091D086003E0002049
:1022D0000D49091D08606006040E022001F0EAFCA9
:1022E000012009490860022001F0E4FC00200749B0
:1022F000C1F8A801022001F0DDFC681CC5B2082D60
:10230000DEDB70BD040C0140A88121420080214227
:1023100010B50F48006820F470400D490860084669
:10232000006840F44050086001200A4908600A49EA
:10233000C1F8A801042001F0BDFC00200549086097
:10234000042001F0B7FC00200349C1F8A80110BD2A
:10235000040C0140AC8121420080214210B511489B
:10236000006820F470400F4908600846006840F497
:102370004050086000200C4908600C49C1F8AC01CD
:10238000022001F097FC012007490860022001F0BB
:1023900091FC01200549C1F8AC01042001F08AFC40
:1023A00010BD0000040C0140A881214200802142A0
:1023B00010B500241448006820F4704012490860E9
:1023C0000846006840F40040086001200F4908609A
:1023D00001F070FC01200E49C1F8A80101F06AFC6F
:1023E00007E0601CC4B2FA2C03DDFFF7B7FF012041
:1023F00010BD0648803800680028F2D10349091F43
:10240000086000BFF4E70000040C0140AC812142E9
:1024100000802142024602F5FA61CB1701EB93736B
:102420009B10A1EB830393B9642091FBF0F300FBB5
:10243000131050B94FF4C87091FBF0F300FB131068
:1024400008B9012070470020FCE70120FAE70020CE
:10245000F8E7000070B505460E461446012108460F
:1024600000F074F91048FFF7E5FA104804801048AE
:102470000560466010200E4988600846C460002050
:1024800008618020486100208861C86108624FF4BB
:1024900080504862002088620348FFF790FB0121CA
:1024A0000148FFF7BBFA70BD30000240E810002081
:1024B0007C37002010B5044600212046FFF7AEFA15
:1024C000054801882046FFF798FB00F00BF8012132
:1024D0002046FFF7A3FA10BDE810002000BFFEE77A
:1024E0007047000008B50C208DF8000003208DF81F
:1024F00001008DF8020001208DF80300684600F00D
:1025000009F8012202210248FFF750FB08BD000034
:102510001C00024070B5002100230F22C47804B3D0
:10252000154C246804F4E064C4F5E064210AC1F1A8
:102530000403CA40447804FA03F184781440214328
:1025400009010E4C0678A155047804F01F050124FA
:10255000AC4005786D11AD0005F1E025C5F80041EE
:1025600009E0047804F01F050124AC40044D06780E
:10257000761145F8264070BD0CED00E000E400E067
:1025800080E100E002490143024A11607047000007
:102590000000FA050CED00E010B501212B48FFF713
:1025A00078FD2B49087002212848FFF772FD284961
:1025B000487004212548FFF76CFD254988700821E3
:1025C0002248FFF766FD2249C87000243AE02048FF
:1025D000005D58B11F4850F82400401C1D4941F8C7
:1025E000240000201C4941F824000AE00020194979
:1025F00041F82400184850F82400401C164941F8BE
:102600002400144850F82400642802D901201349FA
:102610000855114850F82400642802D900200F49B9
:1026200008550E48005D0E49095D884204D00B48EC
:10263000015D204600F016F80848005D084908557D
:10264000601CC4B2042CC2DB10BD000000080140B5
:10265000F21000205C3700206C370020EA100020C8
:10266000EE1000207FB505460E4632480068401C3B
:102670003049086030480078401C2F490870032119
:10268000684600F0FFF86C469DF800002B492A4A86
:10269000127801EB021108709DF801002749264AC3
:1026A000127801EB021148709DF802102348224A6B
:1026B000127800EB02108170E17820481E4A1278EF
:1026C00000EB0210C17021791C481B4A127800EB04
:1026D0000210017160791949174A127801EB021151
:1026E0004871A0791549144A127801EB02118871DA
:1026F000E0791249104A127801EB0211C871A06802
:102700000E490D4A127801EB02118860E1680B480E
:10271000094A127800EB0210C1600120A84000EBCA
:102720000610C1B20548044A127800EB0210C171CC
:102730007FBD0000E4100020D81000208C35002060
:10274000014908627047000000000E4229B1064AA4
:1027500052690243044B5A6104E0034A52698243BE
:10276000014B5A61704700000010024029B1064A2F
:10277000D2690243044BDA6104E0034AD26982431E
:10278000014BDA61704700000010024029B1064A8F
:1027900092690243044B9A6104E0034A92698243BE
:1027A000014B9A6170470000001002400149086027
:1027B000704700004004424210B501460022002349
:1027C00000204A11012A02D1094C236806E0022A9E
:1027D00002D1074C236A01E0054C636A01F01F0235
:1027E000012494401C400CB1012000E0002010BDE9
:1027F000001002401149096821F480310F4A11602C
:102800001146096821F480211160B0F5803F03D0A2
:10281000B0F5802F0ED106E00849096841F48031F7
:10282000064A116007E00549096841F4A021034AFE
:10283000116000E000BF00BF7047000000100240C0
:1028400001490860704700003C0442420249096A9D
:102850000143014A1162704700100240034800889A
:1028600040F0100001490880704700000428004033
:10287000034800884FF6EF7108400149088070470F
:10288000042800402DE9F04105460F464FF00008AE
:102890000024002600F0FEF880467848C0F8088042
:1028A0007748B8FBF0F477480088A0423ED07549DD
:1028B0000C804FF4FA6610E0F0B2FFF7ABFD40B1C8
:1028C000B4F5B77F02D3A4F5B77404E0701C86B2E8
:1028D00006E0A4F26D14701C86B2B4F5B67FEBD896
:1028E00000BFA6F5FA6065490870002616E0634946
:1028F0000878FFF78FFD30B1012E04D11D2C01D3D4
:102900001D3C09E00CE06048805DA04203D85E48B1
:10291000805D241A00E003E0701C86B21C2CE6D215
:1029200000BF701C55494870601C88705448B8FB43
:10293000F0F100FB11844FF46160B4FBF0F04F49FB
:10294000C8704FF46160B4FBF0F100FB11403C2112
:10295000B0FBF1F0494908714FF46160B4FBF0F14C
:1029600000FB11403C21B0FBF1F201FB1200434996
:1029700048710B469A785978187800F0A1F83F49C9
:10298000887100F091F84FF22441081A0901484378
:102990000911B0FBF1F03949C86047B30846007827
:1029A0003A4908723548417838484172334881784D
:1029B000364881723148C1783448C1722F48017954
:1029C000324801732D484179304841732B48817951
:1029D0002E4881732948C1792C48C17327488168E2
:1029E0002A4801612548C1682848416143E0022F17
:1029F0001FD1224800782649087020484078487046
:102A00001E48807888701D48C078C8701B480079BF
:102A100008711A48407948711848807988711748B8
:102A2000C079C8711548806888601448C068C8605B
:102A300021E0032F1FD11148007828700F484078FB
:102A400068700E488078A8700C48C078E8700B4811
:102A50000079287109484079687108488079A8711F
:102A60000648C079E87105488068A8600348C068D6
:102A7000E860BDE8F08100BFFBE700008C1100209A
:102A800080510100E40000209E6A00089C11002093
:102A900098140020002103480188001F008841EAA3
:102AA000004070471C28004000200449098809079D
:102AB000080B0249091D0988084370471028004087
:102AC0002DE9F04104460B46154604F5FA666420EC
:102AD00096FBF0F0C7B2642096FBF0FC00FB1C6094
:102AE000C1B2132F02DD01F16400C1B208464FEA02
:102AF000E17C01EB9C7C01EBAC0C1FFA8CF2072013
:102B000092FBF0FC00FB1C2082B202EB050C581E6D
:102B1000DFF8388018F80000604482B24FEAE17CA8
:102B200001EB9C7C4FEAAC0CA1EB8C0CBCF1000FD0
:102B300003D1032B01DA501E82B2072092FBF0FC76
:102B400000FB1C20C0B2BDE8F0810000926A0008C2
:102B500010B5002401214FF0C050FFF707FE0120FF
:102B6000FFF7EEFDFDF7A7FE4FF48030FFF742FEC2
:102B700004E0601CC4B20A2002F01EFD3120FFF701
:102B80001BFE08B9FA2CF4DBFA2C01DB012010BD86
:102B90004FF44070FFF75AFE0120FFF751FE00F09E
:102BA00043F800F04BF800F03FF8FFF757FE4FF204
:102BB000244000F029F800F037F8012000F004F874
:102BC000FFF756FE0020E2E710B5044601214FF062
:102BD000C050FFF7CBFD0120FFF7B2FD204600F00B
:102BE00005F800F021F8002010BD000000B50246F5
:102BF000FFF734FE100C03490880091D0A80FFF717
:102C000037FE00BD1828004000B50246FFF726FE3B
:102C1000C2F3034003490880091D0A80FFF728FE1C
:102C200000BD00000828004000BF0348008800F0F5
:102C300020000028F9D07047042800400748008889
:102C40004FF6F77108400549088000BF0348008827
:102C500000F008000028F9D0704700000428004068
:102C600038B5044600BF4FF480511048FFF71AFAF8
:102C7000204600F05FFAFE2000F05CFA8DF80000BC
:102C8000FE2000F057FA8DF80100FE2000F052FA05
:102C90008DF802004FF480510448FFF705FA032134
:102CA0006846FDF7E9FD0546284638BD000C0140A1
:102CB00010B504462046FFF7D3FF00B210BD2DE942
:102CC000F04106460F46144600252946012000F033
:102CD00057FC4BF67E11012000F052FC29460320E0
:102CE00000F04EFC4FF60401032000F049FC294699
:102CF000312000F045FC43F22741312000F040FC38
:102D00004FF47A7002F058FC204600F00DFC40F6BB
:102D1000B83002F051FC601C00F006FC40F6B83000
:102D200002F04AFCA01C00F0FFFB40F6B83002F0B5
:102D300043FCBDE8F081000010B580210648FFF794
:102D4000B1F91E2000F0B6FF80210348FFF7ACF96F
:102D50001E2002F031FC10BD0010014010B5FEF73E
:102D60007BFF992206490748FFF774FB01220221E5
:102D700004480C3800F014FA0348FFF79BFB10BD21
:102D8000261800200C3001401C00024010B50446FB
:102D9000B4F5807F11D100F015FD40F205321249E3
:102DA0001248FFF757FB0122022110480C3800F0AF
:102DB000F7F90F48FFF77EFB14E040F20110844260
:102DC00010D100F06FFD40F261120A490748FFF789
:102DD00041FB0122022105480C3800F0E1F90448CA
:102DE000FFF768FB10BD0000261A00200C300140E0
:102DF0001C000240C218002010B500F0ABFFBB223F
:102E000006490748FFF726FB0122022104480C3837
:102E100000F0C6F90348FFF74DFB10BD681700200E
:102E20000C3001401C00024030B5F320424948708C
:102E3000012088700320C8700020087105204871A7
:102E4000482088710120C8713C48006888603C486F
:102E50000078C86000245BE03A4800EB0410017879
:102E60003548103000EB04100170364800EB0410B8
:102E700041783148103000EB04104170314800EBCC
:102E8000041081782C48103000EB041081702D481C
:102E900000EB0410C1782848103000EB0410C1701A
:102EA000284800EB041001792348103000EB04108F
:102EB0000171244800EB041041791F48103000EBE9
:102EC000041041711F4800EB041081791A4810303A
:102ED00000EB041081711B4800EB0410C179164807
:102EE000103000EB0410C171164800EB041081682B
:102EF0001148103000EB04108160124800EB041000
:102F0000C1680D48103000EB0410C160601CC4B2F1
:102F1000142CA1DB4FF4A7710748801CFFF70EF9B2
:102F20000546054981F85051280A81F85101F120E0
:102F300081F8520130BD00002C1D0020E41000205B
:102F4000D81000208C35002000B591B0012104205C
:102F5000FFF71CFC01210803FFF718FC01210846BC
:102F6000FFF7F4FB4020ADF8400003208DF842004D
:102F700018208DF8430010A93448FEF7FFFFA02069
:102F8000ADF8400004208DF8430010A92F48FEF74B
:102F9000F5FF1020ADF8400004208DF8430010A983
:102FA0002A48FEF7EBFF0020ADF82C00ADF82E000C
:102FB000ADF83000ADF832000120ADF8340000204B
:102FC000ADF836002820ADF838000020ADF83A0002
:102FD0000720ADF83C000BA91D4800F0F8F80121CE
:102FE0001B4800F0D1F81B48FEF724FD18480C30B0
:102FF0000090194801908020059000200490C42082
:103000000390002002900A90079006904FF48050A1
:1030100009902020089069460E48FEF7D0FD012156
:103020000C48FEF7FBFC01221146094800F0B8F8F5
:10303000C4220A4906480C30FFF70CFA012202218B
:10304000034800F0ADF811B000BD000000080140D9
:10305000003001401C000240A01600201400002097
:1030600000B587B001211820FFF790FB01218803EC
:10307000FFF77CFB4FF46040ADF8180018208DF886
:103080001B0003208DF81A0006A92748FEF776FFDB
:103090004FF48050ADF8180003208DF81A0010206E
:1030A0008DF81B0006A92048FEF768FF4FF48051F9
:1030B0001D48FEF7F9FF8020ADF8180010208DF8AC
:1030C0001B0003208DF81A0006A91848FEF756FFCA
:1030D00080211648FEF7E8FF0020ADF804004FF409
:1030E0008270ADF806000020ADF80800ADF80A00C7
:1030F0000120ADF80C004002ADF80E003820ADF80C
:1031000010000020ADF812000720ADF8140001A94E
:10311000074800F05CF80121054800F035F8FF2071
:1031200000F008F807B000BD000C0140001001409D
:103130000038004070B50546002405E0601CC4B2AC
:10314000C82C01DD002070BD02210E4800F031F8CE
:103150000028F3D029460B4800F037F8002405E09A
:10316000601CC4B2C82C01DD0020ECE70121054839
:1031700000F01FF80028F3D0024800F023F8C0B296
:10318000E1E700000038004021B1028842F040022F
:10319000028004E002884FF6BF731A400280704735
:1031A0001AB183880B43838002E083888B4383803A
:1031B00070470246002013890B400BB1012000E04C
:1031C000002070470146888970478181704710B59B
:1031D0000022028802F441520B884C8823438C88D9
:1031E0002343CC8823430C8923434C8923438C8974
:1031F0002343CC8923431A430280838B4FF2FF740D
:10320000234083830B8A038210BD704710B500F002
:1032100001F810BD0CB50020019000903348006803
:1032200040F480303149086000BF3048006800F445
:10323000003000900198401C0190009818B9019846
:10324000B0F5A06FF1D12948006800F4003010B14A
:103250000120009001E0002000900098012843D157
:103260002348006840F010002149086008460068C3
:1032700020F0030008600846006840F00200086083
:103280001A4840681949486008464068486008463E
:10329000406840F4806048600846406820F47C1034
:1032A00048600846406840F4E810486008460068F6
:1032B00040F08070086000BF0C48006800F00070AB
:1032C0000028F9D00948406820F003000749486009
:1032D0000846406840F00200486000BF034840686C
:1032E00000F00C000828F9D10CBD000000100240CD
:1032F000002002402DE9F05F04464FF07F594FF067
:103300007C51204603F048FA824625462E46164850
:10331000A0EB660635462946504603F03DFA834643
:10332000294603F039FA8046494603F032FB074646
:10333000294603F031FA05462946504603F02CFA97
:103340008346294603F028FA8046494603F021FBCC
:103350000746294603F020FA05462946204603F091
:103360001BFABDE8F09F0000DF59375F70B50546D6
:103370000E46FDF7C3F930B102204649086000202F
:103380004549087084E0012D45D1B021434800F043
:1033900089FCFDF7ABFA5521022000F0F1F80A2173
:1033A000702000F0EDF86C211E2000F0E9F8E62115
:1033B000602000F0E5F840F22631372000F0E0F818
:1033C0006C211E2000F0DCF8324635493548FFF705
:1033D00076FC00240CE021463248FDF71FFD214613
:1033E0002F48FDF7A1FA2046FDF708FD601CC4B286
:1033F000032CF0DB40F6B83002F0DEF8002405E0E4
:1034000021462948FDF7FEFA601CC4B2032CF7DB05
:10341000FEF772FC3CE0022D11D1324620492148D2
:10342000FFF74DFC002405E029462046FDF788FB08
:10343000601CC4B2032CF7DBFEF75EFC28E0032D12
:1034400012D132464FF07E511648FFF738FC002467
:1034500005E029462046FDF773FB601CC4B2032C2F
:10346000F7DBFEF749FC13E0042D11D132464FF093
:103470007A510C48FFF723FC002405E021460B4855
:10348000FDF714FC601CC4B2032CF7DBFEF734FC20
:1034900070BD0000E010002000000020ED150020AD
:1034A0000000A04000005C43008089440000DC4133
:1034B00010B501F01DFB02F06BF9FFF76DF8FEF798
:1034C00045FA01F025FB10BD10B51348006840F027
:1034D00001001149086008464068104908400E493B
:1034E0004860084600680E4908400B4908600846D5
:1034F000006820F4802008600846406820F4FE0040
:1035000048604FF41F008860FFF780FE4FF00060B6
:103510000449086010BD0000001002400000FFF8E0
:10352000FFFFF6FE08ED00E01FB504461048114904
:10353000086040F201108861084644600121684635
:10354000FFF7A0F9FDF7B8FCFDF7B2FDFEF7A6F80E
:10355000FDF7C6FEFDF766FFFEF702F8FDF790FEE9
:10356000FDF726FEFDF766FEFDF7B8FC1FBD000067
:10357000070206009C110020704700BFFEE7000014
:10358000F8B506460C46002505E0E0B20DF805004A
:10359000240A681CC5B2032DF7DB4FF4805127487D
:1035A000FEF780FDC920FFF7C5FD0020FFF7C2FD33
:1035B0000020FFF7BFFD5A20FFF7BCFD4FF48051FC
:1035C0001E48FEF771FD022000F074FB46F08006F5
:1035D0004FF480511948FEF765FD3046FFF7AAFD0C
:1035E0009DF80200FFF7A6FD9DF80100FFF7A2FD80
:1035F0009DF80000FFF79EFD4FF480510F48FEF745
:1036000053FD022000F056FB4FF480510B48FEF7AB
:1036100049FDC920FFF78EFD0020FFF78BFD00203C
:10362000FFF788FD0020FFF785FD4FF48051034828
:10363000FEF73AFD022000F03DFBF8BD000C014012
:103640000146481EB0F1807F01D301207047481E1B
:103650004FF0E02250610F20044A107000204FF01C
:10366000E0229061032010610020EFE723ED00E0ED
:10367000014609B900207047C8B220B1C8B20E4A4D
:10368000105C401CF7E701F47F4028B10A48C1F301
:103690000722805C0930EEE701F47F0028B106487C
:1036A000C1F30742805C1130E5E7034800EB11608D
:1036B00000781930DFE70000AA6A000803490868AB
:1036C000884201D0012070470020FCE778110020DB
:1036D0002DE9FC5F04468B4615461E46DDE90C9A33
:1036E000DDE90E7804F114004060006000BF1C3476
:1036F0006560A660C4F80C90C4F810A02321D4E93A
:10370000030201F073FBD4E9033C63441A1F0F4B1F
:10371000D4E9010101F0C6F92060A77667760020A0
:10372000E061C4F82080C4F8248060612076606580
:10373000A0651C3C00902346054A2146019004F1F7
:10374000440002F0A7F80020BDE8FC9F6154000887
:10375000C95600082DE9F04704460E46174698461C
:10376000DDF8209084F80990607A20F00100607202
:10377000E66127620020A062C4F82480002506E0EC
:1037800004F1140101EBC50001F038FA6D1C012DA4
:10379000F6DBBDE8F08710B50246002001460EE0DA
:1037A00002F1140303EBC100D0E900436360D0E9E8
:1037B000003423604060006000BF481C01460129BE
:1037C000EEDB10BD10B5F32034494870012088703D
:1037D0000320C8700020087101204871FC20887106
:1037E0000220C8712E48006888602D4841682B4827
:1037F000C1602B48017A294801742948417A274839
:1038000041742748817A254881742548C17A234824
:10381000C1742348017B214801752148417B1F4821
:1038200041751F48817B1D4881751D48C17B1B4820
:10383000C1751B48016919488161194841691748D8
:10384000C16117488169154801624FF43572144906
:103850001C312430FCF7E0FE1148D0F8F0120F487C
:10386000C0F8F8120E48D0F8F4120C48C0F8FC1258
:103870000B48D0F8F8120948C0F8001340F20231A2
:10388000801CFEF75BFC0446044981F80443200ACF
:1038900081F80503F12081F8060310BD241A0020E9
:1038A0009C11002010B5F320FC494870012088705D
:1038B0000320C870012008714871582088710120C8
:1038C000C871F74800780872F5484178F3484172AA
:1038D000F3488178F1488172F148C178EF48C172AC
:1038E000EF480179ED480173ED484179EB484173A8
:1038F000EB488179E9488173E948C179E748C173A8
:10390000E7488168E5480161E548C168E3484161ED
:10391000E3480169E1488161E1484169DF48C161EB
:10392000DF488169DD480162DD48C169DB484162E9
:10393000DB48016AD9488162D948416AD748C162E7
:10394000D748816AD5480163D548C16AD3484163E5
:10395000D348016BD1488163D148416BCF48C163E3
:10396000CF48816BCD480164CD48C16BCB484164E1
:10397000CB48016CC9488164C948416CC748C164DF
:10398000C748816CC5480165C548C16CC3484165DD
:10399000C348016DC1488165C148416DBF48C165DB
:1039A000BF48816DBD480166BD48C16DBB484166D9
:1039B000BB48016EB9488166B948416EB748C166D7
:1039C000B748816EB5480167B548C16EB3484167D5
:1039D000B348016FB1488167B148416FAF48C167D3
:1039E000AF48816FAD48C0F88010AD48C16FAB489B
:1039F000C0F88410AA48D0F88010A848C0F88810F1
:103A0000A748D0F88410A548C0F88C10A448D0F876
:103A10008810A248C0F89010A148D0F88C109F4898
:103A2000C0F894109E48D0F890109C48C0F89810A8
:103A30009B48D0F894109948C0F89C109848D0F84A
:103A400098109648C0F8A0109548D0F89C1093485C
:103A5000C0F8A4109248D0F8A0109048C0F8A81060
:103A60008F48D0F8A4108D48C0F8AC108C48D0F81E
:103A7000A8108A48C0F8B0108948D0F8AC10874820
:103A8000C0F8B4108648D0F8B0108448C0F8B81018
:103A90008348D0F8B4108148C0F8BC108048D0F8F2
:103AA000B8107E48C0F8C0107D48D0F8BC107B48E4
:103AB000C0F8C4107A48D0F8C0107848C0F8C810D0
:103AC0007748D0F8C4107548C0F8CC107448D0F8C6
:103AD000C8107248C0F8D0107148D0F8CC106F48A8
:103AE000C0F8D4106E48D0F8D0106C48C0F8D81088
:103AF0006B48D0F8D4106948C0F8DC106848D0F89A
:103B0000D8106648C0F8E0106548D0F8DC1063486B
:103B1000C0F8E4106248D0F8E0106048C0F8E8103F
:103B20005F48D0F8E4105D48C0F8EC105C48D0F86D
:103B3000E8105A48C0F8F0105948D0F8EC1057482F
:103B4000C0F8F4105648D0F8F0105448C0F8F810F7
:103B50005348D0F8F4105148C0F8FC105048D0F841
:103B6000F8104E48C0F800114D48D0F8FC104B48F2
:103B7000C0F804114A48D0F800114848C0F80811AC
:103B80004748D0F804114548C0F80C114448D0F813
:103B900008114248C0F810114148D0F80C113F48B4
:103BA000C0F814113E48D0F810113C48C0F8181164
:103BB0003B48D0F814113948C0F81C113848D0F8E7
:103BC00018113648C0F820113548D0F81C11334878
:103BD000C0F824113248D0F820113048C0F828111C
:103BE0002F48D0F824112D48C0F82C112C48D0F8BB
:103BF00028112A48C0F830112948D0F82C1127483C
:103C0000C0F834112648D0F830112448C0F83811D3
:103C10002348D0F834112148C0F83C112048D0F88E
:103C200038111E48C0F840111D48D0F83C111B48FF
:103C3000C0F844111A48D0F840111848C0F848118B
:103C40001748D0F844111548C0F84C111448D0F862
:103C500048111248C0F850111148D0F84C110F48C3
:103C6000C0F854110E48D0F850110C48C0F8581143
:103C70000B48D0F854110948C0F85C114FF4AF71EB
:103C8000801CFEF75BFA0446044981F86041200A73
:103C900081F86101F12081F8620110BDC018002097
:103CA0009814002003E0002200F8012B491E00298F
:103CB000F9DC70474FF0E02252694FF47A73B2FB9F
:103CC000F3F250434FF0E022916900BF4FF0E02241
:103CD00092698A1A8242F9D37047000010B588B001
:103CE00013A3D3E901421968DB68CDE905420793C4
:103CF000049113A4D4E90031D4E9022401A816C028
:103D00000093002005E004A90A5C11490A54411CF3
:103D1000C8B21028F7DB002006E01DF800200C498F
:103D200020310A54411CC8B21028F6DB08B010BD7F
:103D3000535630312E3130312D5030312E3030331A
:103D4000485630312E3030322D41543730323245E2
:103D5000FC36002010B5F3207549C87001200871A9
:103D600003204871002088710220C871B2200872B7
:103D7000002048726F48007888726E480088000AF8
:103D8000C8726D480068C8606B4841686848016146
:103D900069488168664841616748C16864488161D3
:103DA000654801696248C1616348416960480162D0
:103DB000614881695E4841625F48C1695C488162CF
:103DC0005D48016A5A48C1625B48416A58480163CC
:103DD0005948816A564841635748C16A54488163CB
:103DE0005548016B5248C1635348416B50480164C8
:103DF0005148816B4E4841644F48C16B4C488164C7
:103E00004D48016C4A48C1644B48416C48480165C3
:103E10004948816C464841654748C16C44488165C2
:103E20004548016D4248C1654348416D40480166BF
:103E30004148816D3E4841663F48C16D3C488166BE
:103E40003D48016E3A48C1663B48416E38480167BB
:103E50003948816E364841673748C16E34488167BA
:103E60003548016F3248C1673348416F3048C0F868
:103E700080103148816F2E48C0F884102E48C16FE1
:103E80002B48C0F888102C48D0F880102848C0F87B
:103E90008C102948D0F884102548C0F89010264886
:103EA000D0F888102248C0F894102348D0F88C101D
:103EB0001F48C0F898102048D0F890101C48C0F84F
:103EC0009C101D48D0F894101948C0F8A0101A484A
:103ED000D0F898101648C0F8A4101748D0F89C10D5
:103EE0001348C0F8A8101448D0F8A0101048C0F823
:103EF000AC101148D0F8A4100D48C0F8B0100E480E
:103F0000D0F8A8100A48C0F8B4100B48D0F8AC108C
:103F10000748C0F8B810B821001DFEF70FF9044695
:103F2000034981F8BC40200A81F8BD0010BD0000A3
:103F300064170020E0100020F01500202DE9F04764
:103F400004468946A9F1020012287CD2DFE800F07D
:103F50000921384F667F96ADC4DBFAF8F7F6F5F421
:103F6000F3F2D54A02EBC41252F82900D24A02EB0E
:103F7000C412516802F0C6FA824602F029FA0546D8
:103F8000CE4ACF4B02F026F9074601F081FFBDE88B
:103F9000F087C94A02EBC41252F82900C64A02EB64
:103FA000C412516802F0AEFA824602F011FA0746D6
:103FB000C44AC54B02F00EF9054601F069FFE6E779
:103FC000BD4A02EBC41252F82900BB4A02EBC412EC
:103FD000516802F097FA824602F0FAF90746BB4AA6
:103FE000BB4B02F0F7F8054601F052FFCFE7B24AAB
:103FF00002EBC41252F82900AF4A02EBC412516816
:1040000002F080FA824602F0E3F90746B14AB24B69
:1040100002F0E0F8054601F03BFFB8E7A64A02EBE4
:10402000C41252F82900A44A02EBC412516802F0EB
:1040300069FA824602F0CCF90746A84AA84B02F07A
:10404000C9F8054600E035E101F022FF9FE79A4AF2
:1040500002EBC41252F82900974A02EBC4125168CD
:1040600002F050FA824602F0B3F907469D4A9E4B91
:1040700002F0B0F8054601F00BFF88E78E4A02EB2C
:10408000C41252F829008C4A02EBC412516802F0A3
:1040900039FA824602F09CF90746944A944B02F0A2
:1040A00099F8054601F0F4FE71E7834A02EBC41269
:1040B00052F82900804A02EBC412516802F022FA39
:1040C000824602F085F905468A4A8B4B02F082F857
:1040D000074601F0DDFE5AE7774A02EBC41252F8B8
:1040E0002900754A02EBC412516802F00BFA8246AD
:1040F00002F06EF90746814A814B02F06BF80546E3
:1041000001F0C6FE43E76C4A02EBC41252F82900E4
:10411000694A02EBC412516802F0F4F9824602F0D7
:1041200057F90746774A784B02F054F8054601F0F4
:10413000AFFE2CE7A7E08FE077E05FE047E02FE0FD
:1041400017E0FFE75C4A02EBC41252F829005A4A12
:1041500002EBC412516802F0D5F9824602F038F938
:1041600005466A4A6A4B02F035F8074601F090FEB0
:104170000DE7514A02EBC41252F829004E4A02EBF5
:10418000C412516802F0BEF9824602F021F90546D8
:10419000604A614B02F01EF8074601F079FEF6E630
:1041A000454A02EBC41252F82900434A02EBC412FA
:1041B000516802F0A7F9824602F00AF90546574A0B
:1041C000574B02F007F8074601F062FEDFE63A4A75
:1041D00002EBC41252F82900374A02EBC4125168AC
:1041E00002F090F9824602F0F3F805464D4A4E4B34
:1041F00001F0F0FF074601F04BFEC8E62E4A02EB45
:10420000C41252F829002C4A02EBC412516802F081
:1042100079F9824602F0DCF80746444A444B01F043
:10422000D9FF054601F034FEB1E6234A02EBC41281
:1042300052F82900204A02EBC412516802F062F9D8
:10424000824602F0C5F805463A4A3B4B01F0C2FFF0
:10425000074601F01DFE9AE6174A02EBC41252F817
:104260002900154A02EBC412516802F04BF982464C
:1042700002F0AEF80746314A314B01F0ABFF05467C
:1042800001F006FE83E60C4A02EBC41252F8290044
:10429000094A02EBC412516802F034F9824602F076
:1042A00097F80746274A284B01F094FF054601F08E
:1042B000EFFD6CE600BF6AE68C320020FDE47CCEA8
:1042C000D50EF03FD84E0E68B227F03F244B91F642
:1042D000C94AF03F1DC1DE1A6778F03F2B482D799F
:1042E000EBB0F03FFDB5365BD5F4F03FFC3CD84475
:1042F000B544F13F62D1B4A942A1F13F5F0E4B51E9
:10430000520BF23FCE308B3CD383F23FF12658095B
:10431000F90BF33F2E925929FBA4F33F2F30F4728F
:104320006750F43F65E52066F80FF53F2D1FE1A2C9
:104330009FE5F53F891F77ACD4D3F63F8B814303CC
:1043400025DDF73FB23A804AA804F93F10B5FEF7E1
:104350006BFD40F2511207490748FEF77BF8012236
:10436000022105480C38FEF71BFF0448FEF7A2F8AF
:1043700010BD00002E1D00200C3001401C0002402A
:104380001CB5FEF7E1FDFEF76BFEFEF7E1FBFCF767
:10439000CFF94FF4A060FEF7F5F8FEF7CDFCFDF77E
:1043A00085FE0446FCF7AAF930B1322001F004F989
:1043B00002203049086008E0B0222F4940F2044052
:1043C000FCF7BAF9322001F0F7F8FCF78FFA4BF658
:1043D0007F510120FFF7D4F855210220FFF7D0F8D4
:1043E0004FF6A2510320FFF7CBF80A217020FFF708
:1043F000C7F86C211E20FFF7C3F8E6216020FFF705
:10440000BFF840F226313720FFF7BAF8FDF7D0F9B0
:10441000322001F0D1F80022114618A000F032FE3F
:104420001849086001200090802302461649019037
:1044300016A000F0ECFF174908600846006818B1A4
:104440000846006801F008F90A2002210B020A461A
:10445000CDE90010104911A000F0D9FF1149086002
:104460000846006818B10846006801F0F5F8002019
:104470001CBD0000E0100020F01500206473656D85
:10448000000000000C000020D55D00087468726513
:104490006164310004000020FD5D000874687265ED
:1044A000616432000800002010B5044600F030F9C5
:1044B000FFF766FF10BD000030B51A4C4368246852
:1044C0001919884215D04B889BB9174B1B68994224
:1044D0000FD0164B1B688B4201D1144B18604B68F0
:1044E0004360104B1B68C31A0E4D4C682D682C445A
:1044F000A3600C4C836824681A19824211D0538837
:104500007BB90A4B1B68834201D1084B1A60436890
:104510005360044B1B68D31A024D44682D682C4429
:10452000A36030BD101100201411002018110020CC
:104530002DE9F04F86B00D469C46DDE910640196EA
:104540000F9B04F04008B8F1000F02D0DFF8708133
:1045500001E0DFF87081CDF8008004F01008B8F1B8
:10456000000F01D024F0010404F00108B8F1000F9D
:1045700002D04FF0300801E04FF02008C24600277B
:1045800004F00208B8F1000F11D0002A02DA2D273A
:1045900052420CE004F00408B8F1000F01D02B27C0
:1045A00005E004F00808B8F1000F00D02027002132
:1045B00042B94FF0300B8846491C0DF1080909F843
:1045C00008B01DE01AE0E146B9F10A0F08D14FF03A
:1045D0000A0BB2FBFBFE0BFB1E28B2FBFBF202E058
:1045E00002F00F08120900BFDDF8009019F808B0BA
:1045F0008846491C0DF1080909F808B0002AE2D1E3
:10460000B14200DD0E469B1B04F01108B8F1000F0B
:1046100010D117B1002B00DD5B1E06E0A84203D2CB
:104620004FF0200880F80080401CB3F10008A3F18F
:104630000103F3DC27B1A84200D207705B1E401CC7
:1046400004F01008B8F1000F0AD104E0A84201D22A
:1046500080F800A0401CB3F10008A3F10103F5DCD1
:1046600006E0A84203D24FF0300880F80080401CDA
:10467000B046761E8845F4DC08E0A84205D20DF16C
:10468000080818F8018080F80080401CB1F100088B
:10469000A1F1010104DDDDF80480B8F1000FECD1D7
:1046A00006E0A84203D24FF0200880F80080401CAA
:1046B000B3F10008A3F10103F3DC06B0BDE8F08F0D
:1046C000BB6B0008AA6B00081CB514200221CB01AB
:1046D0000022CDE90010044904A000F098FE044631
:1046E000204600F0B9FF1CBDA94400086D61696E49
:1046F0000000000010B5044C02E020688047241D33
:1047000002488442F9D310BDD06B0008D46B000876
:1047100010B5044C02E020688047241D0248844202
:10472000F9D310BDD46B0008D86B000810B5FBF7A7
:10473000F9FE044604480088401C00B20249088083
:104740002046FBF7F3FE10BD6811002010B5FBF703
:10475000E9FE04460C480088401E00B20A49088061
:104760000846B0F9000000280ADC00200880204636
:10477000FBF7DCFE0548006828B100F0EFFB02E023
:104780002046FBF7D3FE10BD681100206C110020FD
:1047900070B5054605B970BD1D480068854203D354
:1047A0001C480068854200D3F5E7A5F10C044FF0E2
:1047B000FF31194800F0ABFC608818B12088B0F5D3
:1047C000F55F08D015A000F0FBF923886288214628
:1047D00019A000F0F5F9002060804FF4F55020801A
:1047E00021480068844201D21F480460084960687B
:1047F0000968611A401A1D490968081A1B490860AE
:104800002046FFF759FE044800F064FC00BFC2E7F1
:104810001011002014110020A0390020746F2066B0
:104820007265652061206261642064617461206248
:104830006C6F636B3A0A00006D656D3A2030782525
:104840003038782C207573656420666C61673A2077
:1048500025642C206D6167696320636F64653A206D
:104860003078253034780A001811002020110020FB
:1048700000487047003A002000487047004A002076
:1048800070B542F22830FEF7DBFEFFF733FFFFF78B
:10489000F3FF0446FFF7ECFF0546214600F0EEFC6F
:1048A00070BD704770B505462C1D2E48006838B1A4
:1048B00028462C4909688847064606B970BD00BFDE
:1048C00029A0E16B00F07CF92BA0216A00F078F9B7
:1048D0002DA0616A00F074F92FA0A16A00F070F9B0
:1048E00031A0E16A00F06CF933A0216800F068F9AA
:1048F00035A0616800F064F937A0A16800F060F9A4
:1049000039A0E16800F05CF93BA0216900F058F99A
:104910003DA0616900F054F93FA0A16900F050F991
:1049200041A0E16900F04CF943A0216B00F048F987
:1049300045A0616B00F044F947A0A16B00F040F97D
:10494000287800F0040038B100F05EFE06463146DB
:1049500045A000F035F902E04BA000F031F900BFAE
:10496000FEE70000041100207073723A20307825B1
:104970003038780A000000007230303A2030782554
:104980003038780A000000007230313A2030782543
:104990003038780A000000007230323A2030782532
:1049A0003038780A000000007230333A2030782521
:1049B0003038780A000000007230343A2030782510
:1049C0003038780A000000007230353A20307825FF
:1049D0003038780A000000007230363A20307825EE
:1049E0003038780A000000007230373A20307825DD
:1049F0003038780A000000007230383A20307825CC
:104A00003038780A000000007230393A20307825BA
:104A10003038780A000000007231303A20307825B2
:104A20003038780A000000007231313A20307825A1
:104A30003038780A000000007231323A2030782590
:104A40003038780A00000000206C723A2030782557
:104A50003038780A000000002070633A2030782552
:104A60003038780A00000000686172642066617561
:104A70006C74206F6E207468726561643A202573CF
:104A80000D0A0D0A000000006861726420666175FD
:104A90006C74206F6E2068616E646C65720D0A0D17
:104AA0000A000000F0B504460D461646301D20F001
:104AB000070040380146002203E00C4F41F8227005
:104AC000521C102AF9D30D624FF0000CC1F824C01B
:104AD000C1F828C0C1F82CC0C1F830C04B638C634A
:104AE0004FF0807CC1F83CC0F0BD0000EFBEADDEF1
:104AF00010B5FBF717FD044604480078401C034935
:104B000008702046FBF712FD10BD00000C110020BC
:104B100010B5FBF707FD044604480078401E034922
:104B200008702046FBF702FD10BD00000C110020AC
:104B300070B504462068A0F11405284600F046FD33
:104B4000002070BD2DE9F04105460C4690462046F8
:104B500000F098FDB8F1000F03D0B8F1010F23D198
:104B600005E004F11401284600F060F81CE02E680E
:104B70000FE0A6F1140794F8350097F83510884235
:104B800006DA04F1140107F1140000F04FF802E016
:104B90003668AE42EDD100BFAE4204D104F114013B
:104BA000284600F043F800BF00BF0020BDE8F081B8
:104BB00010B5044604F1140000F01AF8002010BDEE
:104BC0000FB438B505A800907F210848009B049ACF
:104BD00000F00CFF04467F2C00D97F240348FFF728
:104BE00060FE0020009038BC5DF814FB20390020E6
:104BF0004060006070474060006070474060006047
:104C000070470268516002680A600160486070473E
:104C10000268516002680A6001604860704702687B
:104C2000516002680A600160486070474268116024
:104C300042684A60416008607047014608688842DF
:104C400001D1012070470020FCE701460868884236
:104C500001D1012070470020FCE7D0E9002151601C
:104C6000D0E900121160406000607047D0E9002177
:104C70005160D0E900121160406000607047000090
:104C80002DE9F041054615B90020BDE8F081E81C8A
:104C900020F003054E480068854201D90020F4E762
:104CA0000C2D00D20C254FF0FF314A4800F02FFAAE
:104CB0004948006849490968461A7EE04748006843
:104CC00084196088002874D106F10C006168081A04
:104CD000A8426ED306F10C006168091A05F11800AC
:104CE000814230D306F10C0000EB05083B48006818
:104CF00000EB08074FF4F55038800020788060689A
:104D00007860BE60C4F80480012060803048796813
:104D100000680C30814205D0304978680968084441
:104D2000C0F808802E48016805F10C0008442C49A1
:104D300008602C4800680968884219D22848006831
:104D40002849086014E001206080244960680968EF
:104D5000611A401A2249096808442149086021481B
:104D600000680968884203D21D4800681D49086030
:104D70004FF4F550208018480068844212D107E0B3
:104D800015480068406815490968084412490860D8
:104D900011480068408828B10F4800681249096826
:104DA0008842EDD10B4800F095F904F10C006CE756
:104DB000FFE70A4800683044466805480068401B21
:104DC000B0423FF67BAF034800F084F900205CE777
:104DD0001C110020A0390020181100201011002003
:104DE000201100202411002014110020F0B50C46E1
:104DF0000546E6B2042A15D300F0030797B9014629
:104E000046EA062343EA034304E008C108C108C197
:104E100008C1103A102AF8D201E008C1121F042A72
:104E2000FBD20D4601E005F8016B1700A2F101026B
:104E3000F9D1F0BD2DE9F04106460F46304600F0AD
:104E400045F80546E868FFF71BFF044614B9002043
:104E5000BDE8F08100212046EA68FFF7C7FF26720F
:104E60000020607208223946204600F0ECF9FBF77A
:104E700059FB804604F10C01281DFFF7C2FE404695
:104E8000FBF754FB2046E3E770B504460020207290
:104E9000FBF748FB054604F10C00FFF7DEFE284651
:104EA000FBF744FB2046FFF773FC70BD70B504466A
:104EB00000202072FBF736FB054604F10C00FFF7DB
:104EC000CCFE2846FBF732FB70BD000002460021F5
:104ED0000AE0074800EB01100078904203D1044833
:104EE00000EB01107047491C0429F2DB0020F9E7B0
:104EF000281100202DE9F04704460D469046002673
:104F00002846FFF7E3FF0746FFF710FC7E6802E044
:104F1000A6F10C003668381D8642F9D1FFF716FC61
:104F200045F08000207208224146204600F08BF9AF
:104F3000FBF7F8FA814604F10C01381DFFF761FE1A
:104F40004846FBF7F3FABDE8F0870146087A00F01F
:104F5000800008B1012070470020FCE72DE9F041F6
:104F6000FBF7E0FA07461848008838BB1748006886
:104F7000FEF77EFB461E164850F83600A0F11404DA
:104F800014480068844218D013490E70114805680F
:104F900004601248007850B904F11C0105F11C00AE
:104FA000FBF7C7FA3846FBF7C1FABDE8F08104F118
:104FB0001C0105F11C00FBF7BCFA00BF3846FBF7EB
:104FC000B5FA00BFF1E7000068110020741100205D
:104FD000C03900206C110020701100200C1100203D
:104FE00070B50446FBF79EFA054614F8340F20F01E
:104FF0000F0040F0010020706278343C0A4B03EB54
:10500000C20004F114014268116042684A604160C4
:10501000086000BF0549A06B0968084303490860A0
:105020002846FBF783FA70BDC039002074110020B8
:1050300070B50446FBF776FA054604F11400D0E992
:1050400000215160D0E9001211604060006000BF93
:1050500094F83510094A02EBC1000168814201D180
:10506000012100E0002129B10548A16B00688843B7
:10507000034908602846FBF759FA70BDC039002083
:10508000741100202DE9F04105460E4617462946C9
:105090000220FFF7CFFE044614B92046BDE8F08198
:1050A0002046FFF785FDA68367722046F6E72DE9C7
:1050B000F04104460D4616461F462A460221204668
:1050C000FFF718FF2046FFF773FDA68367720020E5
:1050D000BDE8F08170B504460025FBF723FA0646CB
:1050E00004F11400FFF7A9FD28B904F11400FFF73B
:1050F0001FFD012502E0A08B401CA0833046FBF77A
:1051000015FA012D01D1FFF729FF002070BD73B5FD
:105110000546FBF707FA0646A88B002806DDA88B94
:10512000401EA8833046FBF701FA28E0019828B911
:105130003046FBF7FBF96FF001007CBD00F064FA2C
:105140000446002020636A7A214605F11400FFF727
:10515000F9FC0198002809DD01AA002104F14400AE
:1051600000F06CFB04F1440000F0ACFB3046FBF7B0
:10517000DDF9FFF7F3FE206B08B1206BDDE70020BF
:10518000DBE7000008B509A0FFF71AFD0AA0FFF74A
:1051900017FD12A0032301221946009012A0FFF769
:1051A0000FFD19A0FFF70CFD08BD00000A205C20D0
:1051B0007C202F0A000000002D205254202D20209A
:1051C000202020546872656164204F70657261749C
:1051D000696E672053797374656D0A004E6F76208F
:1051E0003138203230323000202F207C205C2020CB
:1051F00020202025642E25642E2564206275696C8C
:10520000642025730A0000002032303036202D2023
:105210003230313920436F70797269676874206267
:10522000792072742D746872656164207465616D93
:105230000A00000001460A4600E0521C10780028CF
:10524000FBD1501A704770B50346A2B118460C4600
:1052500000BF14F8016B00F8016B3EB902E00025B5
:1052600000F8015B551E2A00F9D102E0551E2A0004
:10527000EFD100BF00BF184670BD00002DE9F0411E
:1052800005460E46E81C20F0030726F00308B8F197
:10529000180F09D9A8F11800B84205D3A8EB0700E8
:1052A00018381E49086006E0324629461CA0FFF760
:1052B00087FCBDE8F0812948076004684FF4F55089
:1052C0002080164800680C3060600020A06060807C
:1052D0002249606809680844214908604FF4F55084
:1052E0000968088001201E49096848800B48006849
:1052F0000C301B4909684860084800680C301849A0
:10530000096888600023012216A11848FFF7CFFE24
:10531000124800681649086000BFCAE71C11002047
:105320006D656D20696E69742C206572726F7220D4
:10533000626567696E20616464726573732030789A
:1053400025782C20616E6420656E6420616464722F
:1053500065737320307825780A0000001011002052
:10536000141100206865617000000000A039002061
:105370001811002010B500200B490880002405E01A
:105380000A4901EBC400FFF736FC641C082CF7DB6C
:105390000720074908700020064908600649086090
:1053A0000648FFF728FC10BD68110020C039002016
:1053B000701100206C110020741100207811002061
:1053C00070B508480068FEF753F9451E064850F8C6
:1053D0003500A0F114040548046004F11C00FBF73B
:1053E000D6F870BD74110020C03900206C11002067
:1053F00010B5002405E0044901EBC400FFF7FEFBF3
:10540000641C002CF7D010BD8011002070472DE9DE
:10541000FF5F06460F4690461D46DDE90EAB31465E
:105420000120FFF707FD8146B9F1000F03D10020ED
:1054300004B0BDE8F09F2846FFF722FC044624B9DB
:105440004846FFF721FD0020F2E743463A46314641
:1054500048468DE8300CFEF73BF94846E8E7000087
:1054600070B512480468FBF75DF805462046FFF763
:10547000DFFD042084F8340004F1440000F0FAF960
:105480002046FFF762FD012805D1206F18B920469C
:10549000FFF70CFD04E004F114010548FFF7B8FB29
:1054A0002846FBF743F8FFF759FD70BD6C1100204B
:1054B0007811002001E000F001F8FCE770B53AE057
:1054C000FBF730F80546FEF7F9F830B31D480068E1
:1054D000A0F1140404F11400D0E900215160D0E9D6
:1054E000001211604060006000BFFFF71FF9206FDD
:1054F00010B12046216F88472046FFF726FD01287E
:1055000008D12046FFF7D2FCFFF720F92846FBF729
:105510000DF870BDFFF71AF903E02846FBF706F80F
:10552000F7E72846FBF702F8A06AFFF731F92046B3
:10553000FFF7AAFC00BFFEF7C1F80028C0D100BFEA
:10554000E7E70000781100201FB520200721C200E6
:10555000074BCDE90032CDE902100023054A06A130
:10556000074800F00FF8064800F076F81FBD00006D
:1055700020380020B55400087469646C6500000090
:10558000A83700202DE9FF5F05460C4616461F464A
:10559000DDE910ABDDE90E89224601212846FFF73F
:1055A000A9FC3B463246214628468DE8000FFEF70F
:1055B0008FF804B0BDE8F09F70B50446204600F0B7
:1055C000C5F80546284600F025F870BD70B50446BC
:1055D00094F8340000F00F00022802D04FF0FF30A2
:1055E00070BDFAF79FFF054604F11400FFF73EFB7C
:1055F00004F1440000F0E2F92846FAF797FF20464C
:10560000FFF7EEFC0020EBE7014800687047000060
:105610006C11002031B5FAF785FF05460D48046886
:10562000204600F02FF86A46002104F1440000F003
:1056300005F904F1440000F045F92846FAF776FF31
:10564000FFF78CFC206B801C08B900202063002031
:1056500038BD00006C11002010B504463434A07829
:1056600060706178012088406060022004F834098D
:105670002046FFF7ABFFFFF7C7FF08B1FFF76EFC4F
:10568000002010BD70B5044694F8340000F00F00FF
:10569000012802D04FF0FF3070BDFAF743FF0546F6
:1056A00094F8340020F00F0040F0020084F8340039
:1056B0002046FFF7BDFC04F1440000F07FF92846C6
:1056C000FAF734FF0020E7E770B5044625466FF08F
:1056D0000100286305F11400FFF7C8FA2846FFF718
:1056E0007FFCFFF73BFC70BD70B5FAF71BFF05466A
:1056F0001448046894F8340000F00F0001281CD10D
:10570000D4E90510814218D004F11400FFF7AEFA75
:1057100094F835200C4B03EBC20004F114014268ED
:10572000116042684A604160086000BF2846FAF78D
:10573000FDFEFFF713FC002070BD2846FAF7F6FEC9
:105740000020F9E76C110020C03900200146002933
:1057500002DA4FF0FF3014E04FF47A7291FBF2F26C
:105760004FF47A7302FB03F01A4691FBF2F302FB4B
:1057700013124FF47A735A4302F2E73292FBF3F2B8
:10578000104470470148006870470000081100206D
:1057900010B50A480068401C08490860FFF734FF4C
:1057A0000446206C401E2064206C18B9E06B206415
:1057B000FFF79AFF00F004F810BD00000811002068
:1057C00070B5FFF7DFFF0546FAF7ACFE064628E0A6
:1057D00019480068A0F11404A06A281A6FF000416B
:1057E00088421DD22046FDF7D6FFD4E9071088472E
:1057F000FFF7C8FF0546607A00F0020058B1607AF2
:1058000000F0010038B1607A20F00100607220469B
:1058100000F058F805E0607A20F00100607200E0C6
:1058200004E00548FFF711FA0028D1D000BF304648
:10583000FAF77CFE70BD000080110020034649B1DC
:10584000012904D0022908D0032910D10AE0586A9E
:1058500010600CE01068586209E0587A20F00200ED
:10586000587204E0587A40F00200587200BF00BF3E
:105870000020704770B50446FAF754FE05462046EE
:10588000FDF789FF2846FAF751FE2046FFF70EFB89
:10589000002070BD2DE9F84307460C4615461E460C
:1058A000DDE9088922460A213846FFF723FB4346F3
:1058B000324629463846CDF80090FDF74BFFBDE84B
:1058C000F88300002DE9F8430546FAF72BFE8046E1
:1058D0002846FDF760FF687A20F0010068724046B4
:1058E000FAF724FEFFF74EFF696A0844A862FAF748
:1058F00019FE80462F4F009700242AE019E05DF83A
:1059000024201168142202EBC402881A826AAB6A4E
:10591000D21A00D108E0826AAB6AD21A6FF0004353
:105920009A4200D20CE000BF5DF8240000684DF8F8
:1059300024005DF8240007EBC40149688842DED1E9
:1059400000BF2CB15DF824000830611C4DF8210027
:10595000641C002CD2D018480068401C164908600E
:105960000846066805F114010098FFF758F902246B
:1059700012E006F0030060B9C4F1010305F114025E
:1059800002EBC301C4F101025DF82200FFF747F901
:1059900000E003E0B608641C012CEAD900BF687A75
:1059A00040F0010068724046FAF7C0FD0020BDE8F3
:1059B000F8830000801100208811002070B5044693
:1059C000607A00F0010010B94FF0FF3070BDFAF7B7
:1059D000A9FD05462046FDF7DEFE2846FAF7A6FD9E
:1059E000607A20F0010060720020EFE72DE9FF4FA0
:1059F00089B0804644460A9808EB0006464504D222
:105A00004FF0FF36A6EB08000A906FE10B98007884
:105A1000252806D0B44202D20B9800782070641C6E
:105A200061E1002526E00B98401C0B900B98007854
:105A30002D2802D145F010051CE00B9800782B288A
:105A400002D145F0040515E00B980078202802D11A
:105A500045F008050EE00B980078232802D145F0A8
:105A6000200507E00B980078302802D145F00105A9
:105A700000E000E0D7E700BF4FF0FF370B98007859
:105A800030380A2804D20BA800F065F907460EE06A
:105A90000B9800782A280AD10B98401C0B900C9880
:105AA00080C80C90002F02DA7F4245F010054FF0BD
:105AB000FF390B9800782E281CD10B98401C0B90B6
:105AC0000B98007830380A2804D20BA800F043F96C
:105AD00081460AE00B9800782A2806D10B98401CD2
